:020000040800F2
:10000000380A0020DD010008F7100008990E0008EA
:10001000F3100008E9060008432B00080000000068
:10002000000000000000000000000000771400083D
:10003000C107000800000000A91100088915000888
:10004000F7010008F7010008F7010008F7010008B0
:10005000F7010008F7010008F7010008F7010008A0
:10006000F7010008F7010008F7010008F701000890
:10007000F7010008F7010008F7010008F701000880
:10008000F7010008F7010008F7010008F701000870
:10009000F7010008F7010008F701000851080008FF
:1000A000F7010008F7010008F7010008F701000850
:1000B0002D180008F7010008291C0008F7010008A6
:1000C000F7010008F7010008F7010008F701000830
:1000D000F70100081D270008A5270008A52800082B
:1000E000C5070008F7010008F7010008F70100083C
:1000F000F7010008F7010008F7010008F701000800
:10010000F7010008F7010008D51D0008F7010008F5
:10011000F7010008F7010008F7010008F7010008DF
:10012000F7010008F7010008F7010008F7010008CF
:1001300000F002F800F042F80AA090E8000C8244B7
:100140008344AAF10107DA4501D100F037F8AFF294
:10015000090EBAE80F0013F0010F18BFFB1A43F0A5
:1001600001031847144E0000344E0000103A24BF1B
:1001700078C878C1FAD8520724BF30C830C144BF0C
:1001800004680C607047000000230024002500264E
:10019000103A28BF78C1FBD8520728BF30C148BFEA
:1001A0000B607047642900F04780782900F0808058
:1001B000002070471FB51FBD10B510BD00F0CAF973
:1001C0001146FFF7F7FF03F0A9FA00F0E8F903B4CE
:1001D000FFF7F2FF03BC02F032FD00000948804740
:1001E00009480047FEE7FEE7FEE7FEE7FEE7FEE719
:1001F000FEE7FEE7FEE7FEE704480549054A064B31
:10020000704700008D1500083101000838040020F7
:10021000380A002038060020380600207047000009
:100220000FB4044910B503AA029800F05DF910BCA0
:100230005DF814FB180000202DE9F041064600246B
:1002400010687529314616A510D0AFF3008000283C
:1002500002DA404213A507E031688A0701D512A5EA
:1002600002E0490704D511A5012401E0AFF30080A5
:1002700000210A2206F1240709E0B0FBF2FCB0FBE2
:10028000F2F302FB1C00303078541846491C002859
:10029000F3D123462A463046BDE8F04100F0CAB803
:1002A000000000002D0000002B00000020000000D6
:1002B00070B504460D4621461068AFF300802188D2
:1002C000090502D50F4A7A4402E00E4A7A440E32FA
:1002D000002104F1240305E000F00F060009965DFB
:1002E0005E54491C0028F7D120780023000704D56C
:1002F000702D02D009B1022311322046BDE87040B2
:1003000000F098B8E84B00002DE9F0474FF0000AE4
:1003100089460446C0F820A02046E16888470028A6
:1003200076D0252806D0D4E901219047206A401CC8
:100330002062F1E7E168204600258847C4F81CA048
:1003400006460027C4F818A02A2E09D0304602F02D
:100350006FFC38B304EB8708303EC8F8186019E02A
:1003600059F8041B204604EB87029161E168884735
:10037000012F064618D1E069002820DA25F0200573
:100380001DE0D8F8180000EB800006EB4000303884
:10039000C8F818002046E1688847064602F048FC85
:1003A0000028EED1012F0AD02E2E08D12046E16878
:1003B00088477F1C0646022F45F02005C4DBA06954
:1003C000002803DA404245F00105A061E80701D0AA
:1003D00025F01005B6B1A6F14100192802D8203643
:1003E00045F400654A463146204625604D46FFF7F4
:1003F000D9FE58B1012806D0ED1D25F0070000F107
:10040000080989E704E005F1040985E730468AE731
:10041000206ABDE8F087704770477047704710B595
:1004200000F074F8006810BD10B5044600F06EF8D6
:10043000046010BD2DE9F0470D46994692460446EA
:1004400000F124080168880604D5E06921F0100154
:10045000216000E00120A84201DD471B00E00027E9
:10046000A1697A1902EB0900081AA0612078C00678
:1004700002D42046AFF30080002608E0D4E9012131
:100480001AF806009047206A401C761C20624E45F0
:10049000F4DB2078C0060AD52046AFF3008006E0E2
:1004A000D4E9012130209047206A401C2062381E88
:1004B000A7F10107F4DC07E0D4E9012118F80500F1
:1004C0009047206A401C2062281EA5F10105F3DC3C
:1004D0002046AFF300802078000602D50220BDE858
:1004E000F0870120FBE70000074B70B50D467B4409
:1004F00000F015F80446284600F024F810B14FF03B
:10050000FF3070BD204670BD132A000000487047C0
:10051000D403002001694A1C02610878704700B5C5
:100520008FB0CDE901310021059105497944CDE92C
:10053000031011466846FFF7E7FE0FB000BD00004C
:10054000E5FFFFFF007B00F0800070470048704728
:10055000D40300207546FFF7F9FFAE460500694653
:10056000534620F00700854618B020B5FFF744FE3B
:10057000BDE820404FF000064FF000074FF00008A4
:100580004FF0000B21F00701AC46ACE8C009ACE825
:10059000C009ACE8C009ACE8C0098D46704710B589
:1005A0000446AFF300802046BDE81040FFF70FBEC1
:1005B00000B589B00121480300F018FE012119207F
:1005C00000F014FEC020ADF8200018208DF82300A4
:1005D00003208DF8220008A9404800F085FB402147
:1005E0003E4800F017FC80213C4800F013FC4FF41B
:1005F0007040ADF8200010208DF8230003208DF806
:10060000220008A9364800F06FFB4FF480513448AF
:1006100000F0FEFB4FF40051314800F0F9FB4FF4BD
:1006200080412F4800F0F4FB4FF400412C4800F0CB
:10063000EFFB40F28330ADF818000020ADF8140055
:100640008DF81C00ADF81A00ADF816008DF81C00EE
:1006500005A9244801F0BEFF7020ADF80400012078
:10066000ADF806000020ADF80800ADF80A004FF420
:100670008070ADF810000020ADF80C0001A91948F9
:1006800001F0F6FD7020ADF804000120ADF8060081
:100690000020ADF80800ADF80A004FF48070ADF806
:1006A00010000020ADF80C0001A90E4801F03EFE3C
:1006B00008210C4801F031FE08210A4801F095FE9E
:1006C0000121084801F03CFC0121064801F047FCEB
:1006D0000121044801F04FFC09B000BD00100140A9
:1006E000000C01400034014000BFFEE710B508488F
:1006F000006800F0FBFB0648006800F027FC044897
:10070000006800F089FC0248006800F04FFC10BD52
:100710006C00002010B54FF48051114800F078FBB8
:100720004FF400510E4800F073FB4FF480410C4829
:1007300000F06EFB4FF40041094800F069FB012115
:10074000084800F065FB0221064800F061FB042127
:10075000044800F05DFB0821024800F059FB10BD81
:10076000000C01400010014010B50848006800F07E
:10077000BDFB0748006800F0E9FB0448006800F092
:100780004BFC0348006800F011FC10BD6C00002019
:100790007000002010B50848006800F0A7FB07486B
:1007A000006800F0D3FB0448006800F035FC034803
:1007B000006800F0FBFB10BD700000206C00002002
:1007C0007047000010B54FF4006000F0C3F848B166
:1007D0001B480068401C1A4908604FF4006000F094
:1007E000B3F82BE04FF4805000F0B4F848B115484E
:1007F0000068401C134908604FF4805000F0A4F8D2
:100800001CE04FF4005000F0A5F848B10E48006815
:10081000401C0D4908604FF4005000F095F80DE0C1
:100820004FF4804000F096F840B108480068401C42
:10083000064908604FF4804000F086F810BD0000C3
:10084000380000203C000020400000204400002030
:100850002DE9F84F2021314800F0D1FA00285BD172
:1008600020202F490860472000F00CFC044604F0CB
:10087000D5F800902B49009803F0F2FF0090009803
:1008800003F054FF0646284A284B03F027FA044693
:1008900003F0F2F900902649009804F01FF9009047
:1008A000009804F09FF80A2190FBF1F4204604F030
:1008B000B5F80090009803F039FF80461D4A1E4BA2
:1008C00003F05AFC04460D461C48006803F02EFF56
:1008D000064622462B4603F001FA824603F0CCF985
:1008E0001649086016491548006804F0C3F906D295
:1008F00013491248006804F0EFF9104908601149E3
:100900000E48006804F0B6F806D20D490B4800689E
:1009100003F038FF09490860BDE8F88F000801407E
:10092000140401406F128341BF1072DEFF87F33F52
:1009300000002041FCA9F1D24D62803FB0000020B0
:100940000000B4430000B4C30149086070470000D0
:1009500014040140014600200022074B1B6803EAF3
:100960000102054B14331B680B4013B10AB101207F
:1009700000E00020704700000004014000212349EE
:100980008279002A3AD00A46126803689A430B46D5
:100990001A600A1D126803689A430B1D1A600279D7
:1009A00011440A6803681A430A60184A0832126838
:1009B00003689A43154B08331A601A1D12680368BE
:1009C0009A43124B0C331A604279102A0ED11A1F27
:1009D000126803681A430D4B08331A601A1D126817
:1009E00003681A43094B0C331A600DE0074942793A
:1009F00011440A6803681A430A6005E00279114449
:100A00000A6803689A430A607047000000040140C6
:100A100000B587B00121142000F0E8FB0121084651
:100A200000F0E4FB0121084600F0C0FB4FF4C05089
:100A3000ADF8180048208DF81B0003208DF81A002F
:100A400006A94B4800F050F90B21022000F02CF9C8
:100A50000C21022000F028F94FF4C040ADF8180036
:100A600048208DF81B0003208DF81A0006A9414884
:100A700000F03AF90D21002000F016F90E210020B7
:100A800000F012F94FF4F040049000208DF81400AB
:100A90000C208DF8150001208DF8160004A8FFF732
:100AA0006DFF4FF48050049000208DF814000C204E
:100AB0008DF8150001208DF8160004A8FFF75EFFE1
:100AC0004FF40050049000208DF814000C208DF895
:100AD000150001208DF8160004A8FFF74FFF4FF412
:100AE0008040049000208DF814000C208DF8150033
:100AF00001208DF8160004A8FFF740FF28208DF88C
:100B00000C0001208DF80D008DF80E008DF80F00FF
:100B100003A800F0F1FA41F61F40ADF800004FF4D1
:100B20007A70ADF804000020ADF80600ADF80200C0
:100B300069464FF0804001F04DFD1C208DF80C00FF
:100B400000208DF80D0001208DF80E008DF80F00AB
:100B500003A800F0D1FA01221146900701F07EFBB4
:100B60000121880701F0FBF900F008FB07B000BD88
:100B7000001001400008014000B589B00121480380
:100B800000F034FB01211D2000F030FB4FF44070D9
:100B9000ADF8200018208DF8230003208DF82200E6
:100BA00008A93F4800F0A0F84FF480713C4800F0DD
:100BB00031F94FF400713A4800F02CF90F20ADF8EC
:100BC000200010208DF8230003208DF8220008A9B2
:100BD000334800F089F80121314800F019F9022169
:100BE0002F4800F015F904212D4800F011F90821D3
:100BF0002B4800F00DF940F28330ADF818000020CA
:100C0000ADF814008DF81C00ADF81A00ADF8160010
:100C10008DF81C0005A9234801F0DCFC7020ADF81C
:100C200004000120ADF806000020ADF80800ADF882
:100C30000A004FF48070ADF810000020ADF80C00F1
:100C400001A9184801F0DEFB7020ADF80400012076
:100C5000ADF806000020ADF80800ADF80A004FF42A
:100C60008070ADF810000020ADF80C0001A90D480F
:100C700001F02EFC08210B4801F021FC0821094855
:100C800001F064FC0121074801F05AF901210548EF
:100C900001F065F90121034801F06DF909B000BDCB
:100CA000001001400034014030B500228B071C0FBA
:100CB0000F2303FA04F20B4B8C1053F824309343A8
:100CC000084C8D1044F8253023468C1053F82430FE
:100CD0008C07240F00FA04F42343024C8D1044F8CF
:100CE000253030BD080001402DE9F04102460025C5
:100CF0000026002000230024002791F803C00CF0F8
:100D00000F0591F803C00CF0100CBCF1000F03D0DC
:100D100091F802C04CEA050591F800C0BCF1000F43
:100D200031D0146800202BE04FF0010C0CFA00F3D6
:100D3000B1F800C00CEA03069E4220D183004FF0B8
:100D40000F0C0CFA03F7BC4305FA03FC4CEA04044D
:100D500091F803C0BCF1280F06D14FF0010C0CFA3A
:100D600000FCC2F814C00AE091F803C0BCF1480FBF
:100D700005D14FF0010C0CFA00FCC2F810C0401C69
:100D80000828D1D31460B1F800C0BCF1FF0F34DDE6
:100D9000546800202EE000F1080C4FF0010808FA1A
:100DA0000CF3B1F800C00CEA03069E4221D1830087
:100DB0004FF00F0C0CFA03F7BC4305FA03FC4CEAA6
:100DC000040491F803C0BCF1280F05D100F1080C10
:100DD00008FA0CF8C2F8148091F803C0BCF1480F6F
:100DE00007D100F1080C4FF0010808FA0CF8C2F81E
:100DF0001080401C0828CED35460BDE8F081024624
:100E0000002093680B400BB1012000E000207047E8
:100E1000416170470161704708B50121042000F06D
:100E2000E5F90121102000F0E1F91020ADF80000F3
:100E30008DF8030003208DF8020069461448FFF77F
:100E400053FF10211248FFF7E3FF1020ADF8000018
:100E50008DF8030003208DF8020069460D48FFF766
:100E600043FF10210B48FFF7D3FF2020ADF800000F
:100E700010208DF8030003208DF802006946054814
:100E8000FFF732FF20210348FFF7C2FF08BD000033
:100E9000000801400010014000BFFEE708B5012135
:100EA000242000F0A3F94FF48070ADF80000142066
:100EB0008DF8030003208DF8020069460948FFF70A
:100EC00013FF4FF480710748FFF7A4FF0420ADF82B
:100ED000000069460448FFF707FF04210248FFF7B6
:100EE00099FF08BD000801400014014010B50446F8
:100EF00012480068844207D101211148FFF788FF9A
:100F000002210F48FFF786FF0E480068844207D190
:100F100001210B48FFF77EFF02210948FFF778FF08
:100F200009480068844207D101210548FFF772FF94
:100F300002210348FFF76EFF10BD00006C00002087
:100F400000100140700000206800002010B5044629
:100F500012480068844207D104211148FFF758FF66
:100F600008210F48FFF756FF0E480068844207D15A
:100F700004210B48FFF74EFF08210948FFF748FFFF
:100F800009480068844207D104210548FFF742FF61
:100F900008210348FFF73EFF10BD00006C00002051
:100FA00000100140700000206800002010B50446C9
:100FB00015480068844209D14FF480511348FFF767
:100FC00027FF4FF400511148FFF724FF1048006835
:100FD000844209D14FF480510C48FFF71BFF4FF4B6
:100FE00000510A48FFF714FF0A480068844209D1FB
:100FF0004FF480510548FFF70DFF4FF400510348AF
:10100000FFF708FF10BD00006C000020000C01403D
:10101000700000206800002010B5044615480068E4
:10102000844209D14FF480411348FFF7F1FE4FF499
:1010300000411148FFF7EEFE10480068844209D1D4
:101040004FF480410C48FFF7E5FE4FF400410A4899
:10105000FFF7DEFE0A480068844209D14FF4804160
:101060000548FFF7D7FE4FF400410348FFF7D2FED3
:1010700010BD00006C000020000C0140700000203A
:10108000680000202DE9F0410446204600F00BF8EE
:101090000546611CC8B200F006F8064646EA052778
:1010A00038B2BDE8F08170B5044600F097F9D02061
:1010B00000F0C3F900F062F900B116E0204600F03C
:1010C000BCF900F05BF900B10FE000F087F9D12026
:1010D00000F0B3F900F052F900B106E000F062F957
:1010E0000546012000F096F900BF00F087F9284678
:1010F00070BD00BFFEE7704770B5002100230F22CE
:10110000C47804B3154C246804F4E064C4F5E064C6
:10111000210AC1F10403CA40447804FA03F1847837
:101120001440214309010E4C0678A155047804F0BF
:101130001F050124AC4005786D11AD0005F1E025D7
:10114000C5F8004109E0047804F01F050124AC4013
:10115000044D0678761145F8264070BD0CED00E090
:1011600000E400E080E100E002490143024A11602E
:10117000704700000000FA050CED00E000B50648DD
:1011800002F098FB054802F095FB054802F092FB3F
:10119000044802F08FFB00BD84010020980100206C
:1011A000AC010020C00100207047000029B1064AB0
:1011B000D2690243044BDA6104E0034AD2698243F4
:1011C000014BDA61704700000010024029B1064A65
:1011D00012690243044B1A6104E0034A1269824314
:1011E000014B1A61704700000010024029B1064A05
:1011F00092690243044B9A6104E0034A9269824374
:10120000014B9A61704700000010024029B1064A64
:10121000D2680243044BDA6004E0034AD268824396
:10122000014BDA60704700000010024030B5002129
:101230000022002400232D4D6D6805F00C0121B122
:10124000042905D0082923D105E0294D056022E0B5
:10125000274D05601FE0254D6D6805F47012234D84
:101260006D6805F48034022505EB92421CB9214DCE
:10127000554305600BE01D4D6D6805F400351DB14B
:101280001C4D5543056002E0194D5543056002E0D1
:10129000174D056000BF00BF144D6D6805F0F001EB
:1012A0000909154D6B5C0568DD4045600F4D6D68A3
:1012B00005F4E061090A104D6B5C4568DD4085600E
:1012C0000A4D6D6805F46051C90A0B4D6B5C4568A9
:1012D000DD40C560054D6D6805F44041890B074D43
:1012E0006B5CC568B5FBF3F5056130BD00100240CD
:1012F00000127A0000093D001E0000202E00002090
:10130000014600200B2902D1084A10680DE00C2983
:1013100002D1074A106808E00D2902D1054A106879
:1013200003E00E2901D1044A1068704748000020EC
:101330004C000020500000205400002010B5402137
:101340000148FFF767FD10BD000C014010B54021BA
:101350000148FFF75DFD10BD000C014010B5802174
:101360000148FFF757FD10BD000C014010B580216A
:101370000148FFF74DFD10BD000C014010B5FFF70F
:10138000EDFFFFF7DBFF01F06DFD05480068C0F3DE
:10139000C014FFF7DBFF01F065FD204610BD000023
:1013A000080C014070B5002512E0FFF7D7FFFFF7EA
:1013B000C5FF01F057FD6006040E07480068C0F342
:1013C000C0100443FFF7C2FF01F04CFD681C85B25A
:1013D000082DEADB204670BD080C014010B5FFF770
:1013E000BDFFFFF7ABFF01F03DFDFFF7BFFF01F0D1
:1013F00039FDFFF7ABFF01F035FD10BD10B5FFF76C
:10140000B5FFFFF79BFF01F02DFDFFF7A7FF01F0F0
:1014100029FD10BD10B50446FFF798FF14B1FFF782
:101420009DFF01E0FFF7A2FFFFF788FF01F01AFD23
:10143000FFF78CFF01F016FD10BD70B50546FFF7F4
:1014400085FF002414E080202041284010B1FFF7E0
:1014500085FF01E0FFF78AFF01F004FDFFF76EFF53
:1014600001F000FDFFF772FF01F0FCFC601C84B28C
:10147000082CE8DB70BD704710B500F001F810BD16
:101480000CB50020019000903348006840F4803093
:101490003149086000BF3048006800F40030009017
:1014A0000198401C0190009818B90198B0F5A06F00
:1014B000F1D12948006800F4003010B101200090FB
:1014C00001E0002000900098012843D123480068E3
:1014D00040F01000214908600846006820F0030031
:1014E00008600846006840F0020008601A4840683A
:1014F000194948600846406848600846406840F41A
:10150000806048600846406820F47C1048600846C7
:10151000406840F4E81048600846006840F0807079
:10152000086000BF0C48006800F000700028F9D087
:101530000948406820F003000749486008464068B1
:1015400040F00200486000BF0348406800F00C0013
:101550000828F9D10CBD0000001002400020024014
:10156000042808D14FF0E021096941F004014FF04F
:10157000E022116107E04FF0E021096921F0040148
:101580004FF0E022116170477047000010B513481A
:10159000006840F0010011490860084640681049A1
:1015A00008400E494860084600680E4908400B494B
:1015B00008600846006820F48020086008464068FB
:1015C00020F4FE0048604FF41F008860FFF754FFCE
:1015D0004FF000600449086010BD00000010024098
:1015E0000000FFF8FFFFF6FE08ED00E0F0B50C4646
:1015F000154600220021068C4FF6FE773E400684F9
:10160000028B018C4FF60C7632407E1C06EA0316E4
:101610002E433243104EB0420ED0104EB0420BD08B
:10162000B0F1804F08D00E4EB04205D00D4EB04202
:1016300002D00D4EB04206D14FF6FD76314044F057
:101640000106314305E04FF6F576314044F00106DE
:10165000314302830184F0BD002C0140003401407D
:101660000004004000080040000C0040F0B50C46AB
:101670001546002200210026078C4FF6EF7C07EA72
:101680000C070784028B018C4FF6FF7707EA0416DC
:1016900040F6FF473A404FF6FF7707EA03373A43F1
:1016A0004FF6FF7707EA05273A43114FB8420ED0AD
:1016B000104FB8420BD0B0F1804F08D00E4FB84257
:1016C00005D00E4FB84202D00D4FB84206D14FF6AA
:1016D000DF77394046F01007394305E04FF65F7772
:1016E000394044F01007394302830184F0BD000003
:1016F000002C01400034014000040040000800407C
:10170000000C0040F0B50C461546002200210026D2
:10171000078C4FF6FF6C07EA0C070784828B018C5D
:101720004FF6FF7707EA04264FF60C773A404FF65C
:10173000FF7707EA03172F433A43114FB8420ED001
:10174000104FB8420BD0B0F1804F08D00E4FB842C6
:1017500005D00E4FB84202D00D4FB84206D14FF619
:10176000FF57394046F48077394305E04FF2FF5781
:10177000394044F48077394382830184F0BD00000E
:10178000002C0140003401400004004000080040EB
:10179000000C0040F0B50C46154600220021002642
:1017A000078C4EF6FF7C07EA0C070784828B018CBE
:1017B0004FF6FF7707EA043640F6FF473A404FF608
:1017C000FF7707EA05273A434FF6FF7707EA033723
:1017D0003A43114FB8420ED0104FB8420BD0B0F17F
:1017E000804F08D00E4FB84205D00E4FB84202D0FD
:1017F0000D4FB84206D14DF6FF77394046F4805779
:10180000394305E047F6FF57394044F480573943E0
:1018100082830184F0BD0000002C014000340140AF
:101820000004004000080040000C00402DE9F84F83
:101830000121880700F0ABFC00287DD085480068B6
:1018400003F004F9804602F071FF06460022824B45
:1018500002F092FC044602F00FFA80490860002072
:101860007C4908607E48006803F0F0F8804602F08A
:101870005DFF06460022784B02F07EFC044602F033
:10188000FBF97849086000207549086076480068CF
:1018900003F0DCF8804602F049FF064600226E4B5A
:1018A00002F06AFC044602F0E7F970490860002083
:1018B0006D4908606E48006803F0C8F8804602F081
:1018C00035FF06460022644B02F056FC044602F047
:1018D000D3F96849086000206549086066480068D7
:1018E00001287DD10B20FFF70BFD834603F07AF82A
:1018F00006466249304601F0B9FF0090574800683B
:1019000003F070F8834659465DA0FEF789FC009805
:1019100003F068F8594909690844584908610846BC
:101920000069B0F5617F02DB40F283300861534803
:101930000069002804DA00E08AE000204F490861CD
:101940000C20FFF7DDFC834603F04CF804464E49BB
:10195000204601F08BFF8046404603F043F84A4999
:10196000096908444849086108460069B0F5617F83
:1019700002DB40F28330086143480069002802DA44
:101980000020414908610D20FFF7BAFC834603F0AF
:1019900029F805463D49284601F068FF814648463A
:1019A00003F020F8394909690844384908610846B4
:1019B0000069B0F5617F02DB40F283300861334893
:1019C0000069002802DA0020304908610E20FFF784
:1019D00097FC834603F006F807462849304600E0A6
:1019E00032E001F043FF8246504602F0FBFF2849F7
:1019F000096908442649086108460069B0F5617F15
:101A000002DB40F28330086121480069002802DAD5
:101A100000201F4908611948008A81B21D4800F062
:101A2000A6FD1948008A81B21A4800F0A2FD1748A5
:101A3000008A81B2174800F096FD1548008A81B2ED
:101A4000144800F092FD00BF0121880700F084FADD
:101A5000BDE8F88F38000020000024404800002036
:101A60003C0000204C0000204000002050000020DE
:101A70004400002054000020340000208401002095
:101A800025640D0A0000000098010020AC01002030
:101A9000C00100200034014030B589B004460D4635
:101AA00001210C20FFF7A2FB18208DF82300032052
:101AB0008DF82200C020ADF8200008A92A48FFF7C1
:101AC00013F90320ADF8200008A92848FFF70CF906
:101AD00001210220FFF76AFB254800F05BFAADF810
:101AE0001450ADF818400020ADF81600ADF81A00FB
:101AF00005A91F4800F06EFD6020ADF8040001202C
:101B0000ADF806004FF47A70ADF80A000020ADF889
:101B10000C0001A9164800F0ABFB01A9144800F025
:101B200005FC01A9124800F06DFC01A9104800F065
:101B3000CFFC08210E4800F0F0FB08210C4800F013
:101B400054FC08210A4800F0BAFC0821084800F0BB
:101B5000FDFC0121064800F00EFA0121044800F0C6
:101B6000FEF909B030BD000000080140000C014042
:101B70000004004030B589B005460C460121042020
:101B8000FFF714FB01210820FFF730FB4FF48070B2
:101B9000ADF8140028208DF8170005A92048FFF79C
:101BA000A3F84FF480711E48FFF732F9ADF80C50DE
:101BB000ADF808400020ADF80E00ADF80A0002A90B
:101BC000184800F007FD0820ADF818000020ADF817
:101BD0001A000120ADF81C000020ADF81E00ADF881
:101BE000200006A90F4800F0E3FA1E208DF804003B
:101BF00002208DF8050000208DF8060001208DF8E8
:101C0000070001A8FFF778FA01220921054800F032
:101C100025FB0121034800F0A2F909B030BD000006
:101C2000000C01400008004010B52C48007800F07E
:101C3000800000284CD10121294800F0A8FAD0B139
:101C40002648007800F04000A8B12448007800F051
:101C50003F003F280AD12148007840F080001F490A
:101C600008704FF6FF701F49088004E01B48007899
:101C7000401C1A4908700821194800F088FA38B346
:101C80001648007800F0400078B11448007840F021
:101C9000800012490870124800F076FA1149088055
:101CA00000210F4800F0FEFB12E000200B490870F5
:101CB0000C49088000210A4800F05EFC07480078C3
:101CC00040F04000054908700221054800F0EAFB99
:101CD0000921034800F040F910BD000090000020E9
:101CE000000800409200002030B589B005460C463F
:101CF00001210820FFF75AFA01210420FFF776FAA4
:101D00000120ADF8140028208DF8170005A92F48F0
:101D1000FEF7EAFF01212D48FFF77AF80220ADF81F
:101D2000140028208DF8170005A92848FEF7DCFFCD
:101D300002212648FFF76CF8ADF80C50ADF80840CA
:101D40000020ADF80E00ADF80A0002A9204800F00E
:101D500041FC0020ADF81800ADF81A000120ADF8E4
:101D60001C000020ADF81E00ADF8200006A91848A0
:101D700000F01EFA0420ADF818000020ADF81A009B
:101D80000120ADF81C000020ADF81E00ADF82000C9
:101D900006A90F4800F00CFA32208DF8040000204C
:101DA0008DF805008DF8060001208DF8070001A8C8
:101DB000FFF7A2F901220721054800F04FFA01219F
:101DC000034800F0CCF809B030BD00000008014025
:101DD000000C004010B55548007800F08000002845
:101DE0004CD10121524800F0D2F9D0B14F480078CF
:101DF00000F04000A8B14D48007800F03F003F28B7
:101E00000AD14A48007840F08000484908704FF6EF
:101E1000FF704849088004E044480078401C43496A
:101E200008700221424800F0B2F938B33F48007808
:101E300000F0400078B13D48007840F080003B4918
:101E400008703B4800F09AF93A4908800021384868
:101E500000F05AFA12E00020344908703549088031
:101E60000021334800F088FB3048007840F0400003
:101E70002E49087002212E4800F046FA2E480078BC
:101E800000F0800000284CD10121294800F07FF9A2
:101E9000D0B12948007800F04000A8B12648007869
:101EA00000F03F003F280AD12348007840F080002E
:101EB000214908704FF6FF702049088004E01E4851
:101EC0000078401C1C4908700421194800F05FF993
:101ED00038B31948007800F0400078B1164800780F
:101EE00040F0800014490870114800F04AF9134985
:101EF000088000210E4800F06BFA12E000200E4925
:101F000008700E4908800021094800F035FB0A4896
:101F1000007840F04000084908700221044800F0B1
:101F200057FA0721024800F017F810BD880000207A
:101F3000000C00408A0000208C0000208E00002051
:101F400021B1028842F08002028004E002884FF64C
:101F50007F731A4002807047CA430282704721B1E2
:101F6000028842F00102028004E002884FF6FE730C
:101F70001A400280704731B1B0F8442042F4004268
:101F8000A0F8442005E0B0F84420C2F30E02A0F807
:101F90004420704710B504466848844208D10121A6
:101FA000C014FFF733F90021E014FFF72FF9C4E064
:101FB000B4F1804F08D101210846FFF707F900214D
:101FC0000120FFF703F9B8E05D48844208D1012100
:101FD0000220FFF7FBF800210220FFF7F7F8ACE042
:101FE0005848844208D101210420FFF7EFF800216E
:101FF0000420FFF7EBF8A0E05348844208D1012108
:102000000820FFF7E3F800210820FFF7DFF894E04D
:102010004E48844208D101211020FFF7D7F8002153
:102020001020FFF7D3F888E04948844208D1012105
:102030002020FFF7CBF800212020FFF7C7F87CE035
:102040004448844208D101214014FFF7DFF8002101
:102050006014FFF7DBF870E03F48844209D10121AA
:10206000C804FFF7D3F800214FF40020FFF7CEF8A3
:1020700063E03A48844209D101210805FFF7C6F818
:1020800000214FF48010FFF7C1F856E03448844235
:1020900009D101214805FFF7B9F800214FF40010DC
:1020A000FFF7B4F849E02F48844208D101214020CD
:1020B000FFF78CF800214020FFF788F83DE02A4820
:1020C000844208D101218020FFF780F80021802080
:1020D000FFF77CF831E02548844208D101218015C2
:1020E000FFF774F80021A015FFF770F825E02048ED
:1020F000844209D101210804FFF788F800214FF438
:102100008030FFF783F818E01A48844209D1012192
:102110004804FFF77BF800214FF40030FFF776F812
:102120000BE01548844208D101218804FFF76EF8BE
:1021300000214FF48020FFF769F810BD002C01400A
:102140000004004000080040000C00400010004067
:102150000014004000340140004C01400050014098
:102160000054014000180040001C004000200040C6
:102170000040014000440140004801400146888E73
:1021800070470146088F70470146888F704730B509
:102190000246002000230024158A05EA01039589E0
:1021A00005EA010413B10CB1012000E0002030BDAC
:1021B00070B505460C46244885420ED0234885421A
:1021C0000BD0B5F1804F08D02148854205D0214879
:1021D000854202D02048854200D100E000BF20881F
:1021E00050B92389A28861882846FFF7FFF9E18862
:1021F000284600F0C3F925E0208804280AD1238965
:10220000A28861882846FFF731FAE188284600F065
:10221000BEF917E0208808280AD12389A28861889E
:102220002846FFF76FFAE188284600F0BDF909E07B
:102230002389A28861882846FFF7ACFAE1882846FE
:1022400000F0BBF970BD0000002C014000340140DB
:102250000004004000080040000C00401AB18389CF
:102260000B43838102E083898B43838170470000A5
:1022700070B5002400220023058C4FF6FE76354011
:102280000584028C8388048B4FF68F752C40B51E15
:102290002C400D882C43751E2A400D892A434D88F9
:1022A0002A43144DA8420BD0134DA84208D0134D19
:1022B000A84205D0124DA84202D0124DA84213D117
:1022C0004FF6F7752A404D892A434FF6FB752A4091
:1022D0008D882A434FF6FF652B404FF6FF552B4064
:1022E0008D892B43CD892B4383800483CD888586BC
:1022F000028470BD002C01400034014000400140C8
:1023000000440140004801400A460021018C4FF67C
:10231000FD7319401143018470470A460021018B67
:102320004FF6F773194011430183704770B50024CD
:1023300000220023058C4FF6EF7635400584028C91
:102340008388048B48F6FF752C404FF6FF452C40E0
:102350000D884FF6FF7606EA05252C434FF6DF750C
:102360002A400D8906EA05152A434D8806EA051517
:102370002A43154DA84202D0144DA8421DD14FF654
:102380007F752A404D894FF6FF7606EA05152A43E8
:102390004FF6BF752A408D8806EA05152A434FF689
:1023A000FF352B404FF2FF752B408D8906EA8505DE
:1023B0002B43CD8906EA85052B4383800483CD8892
:1023C0000587028470BD0000002C014000340140EC
:1023D0000A460021018C4FF6DF7319404FF6FF7358
:1023E00003EA02131943018470470A460021018B56
:1023F0004FF2FF7319404FF6FF7303EA02231943AC
:102400000183704770B5002400220023058C4FF62D
:10241000FF6635400584028C8388848B4FF68F7568
:102420002C404FF6FC752C400D882C434FF6FF5581
:102430002A400D894FF6FF7606EA05252A434D8886
:1024400006EA05252A43154DA84202D0144DA8429C
:102450001DD14FF2FF752A404D894FF6FF7606EAEF
:1024600005252A434FF6FF352A408D8806EA0525C3
:102470002A434EF6FF752B404DF6FF752B408D8994
:1024800006EA05152B43CD8906EA05152B43838003
:102490008483CD888587028470BD0000002C0140B4
:1024A000003401400A460021018C4FF6FF531940C9
:1024B0004FF6FF7303EA02231943018470470A466B
:1024C0000021818B4FF6F7731940114381837047C8
:1024D00070B5002200230024058C4EF6FF763540AF
:1024E0000584038C8488828B48F6FF752A404FF65A
:1024F000FF452A400D884FF6FF7606EA05252A4358
:102500004DF6FF752B400D8906EA05352B434D88A6
:1025100006EA05352B430B4DA84202D00A4DA842CE
:1025200008D14BF6FF752C408D894FF6FF7606EAF1
:1025300085152C4384808283CD88A0F84050038485
:1025400070BD0000002C0140003401400A4600210B
:10255000818B4FF2FF7319404FF6FF7303EA02239A
:10256000194381837047818670470187704781874F
:102570007047A0F84010704781847047028B4FF677
:10258000F3731A400283028B0A4302837047028B63
:102590004FF2FF331A400283028B4FF6FF7303EAB8
:1025A00001231A4302837047828B4FF6F3731A405C
:1025B0008283828B0A4382837047828B4FF2FF3380
:1025C0001A408283828B4FF6FF7303EA01231A437A
:1025D00082837047002202881D4B98420ED01D4B0B
:1025E00098420BD0B0F1804F08D01B4B984205D0D9
:1025F0001A4B984202D01A4B984204D14FF68F736F
:102600001A404B881A43174B984207D0164B9842F2
:1026100004D04FF6FF431A40CB881A4302808B88C0
:1026200083850B8803850A4B98420BD0094B98424F
:1026300008D00E4B984205D00D4B984202D00D4B5E
:10264000984201D10B7A03860123838270470000F0
:10265000002C01400034014000040040000800400C
:10266000000C0040001000400014004000400140F9
:10267000004401400048014000B501F061FA002823
:1026800045D001F063FA0346412B40D101F05EFAD8
:102690000346422B3BD101F059FA30381C4988706F
:1026A00001F054FA30381A49C87001F04FFA303846
:1026B0001749087101F04AFA30381549487101F09C
:1026C00045FA30381249887101F040FA3038104923
:1026D000C87108468078642148430D49C97801EBE8
:1026E000810100EB41000A49097908440949086061
:1026F00007484079642148430549897901EB810104
:1027000000EB41000249C97908440349086000BD53
:1027100077000020800000208400002010B540F2E7
:1027200025511D4800F04CF910B31B4800F004FA85
:10273000C4B21A48008800F40040C8B9174800889D
:1027400000F4804060B10A2C03D0002013490880B7
:1027500020E01248008840F400401049088019E049
:102760000D2C06D10D48008840F480400B490880AC
:1027700010E00A480088C0F30D0009490C540748CE
:102780000088401C0549088008460088C72801DDEC
:102790000020088010BD0000003801401C0000200F
:1027A000BC00002010B540F225510E4800F008F999
:1027B000B0B10C4800F0C0F90B490C4A12788854AB
:1027C0000A480078401C0949087008460078FF282C
:1027D00001DD0020087006480078401C044908709C
:1027E00010BD000000440040D4010020740000200F
:1027F0007500002010B586B0044601210420FEF7C4
:10280000F5FC01214804FEF7D1FC0420ADF81400CA
:1028100018208DF8170005A92048FEF765FA082052
:10282000ADF8140004208DF8170005A91B48FEF729
:102830005BFA01214804FEF7C9FC00214FF4003087
:10284000FEF7C4FC01940020ADF80800ADF80A00C2
:10285000ADF80C00ADF810000C20ADF80E0001A989
:102860000F4800F0FDF826208DF8000003208DF8B9
:1028700001008DF8020001208DF803006846FEF784
:102880003BFC012240F22551054800F0C3F801212C
:10289000034800F089F806B010BD000000080140B0
:1028A0000044004010B540F225510E4800F088F871
:1028B000B0B10C4800F040F90B490C4A127888542A
:1028C0000A480078401C0949087008460078FF282B
:1028D00001DD0020087006480078401C044908709B
:1028E00010BD000000480040D402002094000020E9
:1028F0009500002010B586B0044601210820FEF79F
:1029000075FC01218804FEF751FC4FF48060ADF89E
:10291000140018208DF8170005A92148FEF7E4F9E6
:102920004FF40060ADF8140004208DF8170005A9DD
:102930001B48FEF7D9F901218804FEF747FC002166
:102940004FF48020FEF742FC01940020ADF808000F
:10295000ADF80A00ADF80C00ADF810000C20ADF891
:102960000E0001A90F4800F07BF827208DF8000029
:1029700003208DF801008DF8020001208DF803007E
:102980006846FEF7B9FB012240F22551054800F0E8
:1029900041F80121034800F007F806B010BD00001F
:1029A000000C01400048004021B1828942F40052ED
:1029B000828104E082894DF6FF731A40828170475C
:1029C00070B50246002400230025002040F66A1658
:1029D000B14200D100BFC1F3421501F01F0301262F
:1029E00006FA03F3012D02D19689334006E0022D49
:1029F00002D1168A334001E0968A33400C12012638
:102A000006FA04F41688344013B10CB1012000E03A
:102A1000002070BDF0B503460024002600250020EC
:102A200040F66A17B94200D100BF1846C1F34214FC
:102A300001F01F06012707FA06F5012C01D10C3021
:102A400004E0022C01D1103000E014301AB1076804
:102A50002F43076002E00768AF430760F0BD000046
:102A60002DE9F04786B005460E460024A24600BF79
:102A7000A1460027B08900B100BF2F462C8A4CF632
:102A8000FF700440F08804432C82AC894EF6F310AA
:102A90000440B08831890843718908430443AC81FC
:102AA000AC8A4FF6FF400440B0890443AC8201A8D1
:102AB000FEF7BCFB1F48874202D1DDF810A001E001
:102AC000DDF80CA0A88900F4004040B10AEBCA0070
:102AD00000EB0A1031684900B0FBF1F807E00AEB9F
:102AE000CA0000EB0A1031688900B0FBF1F86420DD
:102AF000B8FBF0F004012009642101FB1089A889CA
:102B000000F4004040B1322000EBC900B0FBF1F00E
:102B100000F00700044308E0322000EB09106421B4
:102B2000B0FBF1F000F00F0004432C8106B0BDE8CB
:102B3000F08700000038014001468888C0F3080093
:102B4000704700BFFEE7490050EAC12018BF0420CB
:102B50004A0D18BF40F0010040F2FF72B2EB515F26
:102B600008BF40F00200012808BF052070472DE98A
:102B7000F0414F1E00EBC7010446D1E900011546A4
:102B80001E4637F006020DD02A46334601F0F4FA0D
:102B90007F1E04EBC703D3E9002301F09FF837F051
:102BA0000602F1D1022F25D0042F13D0062F18BF13
:102BB000BDE8F0812A46334601F0DEFAD4E90A2363
:102BC00001F08CF82A46334601F0D6FAD4E90823FE
:102BD00001F084F82A46334601F0CEFAD4E9062300
:102BE00001F07CF82A46334601F0C6FAD4E9042302
:102BF00001F074F82A46334601F0BEFAD4E9022304
:102C000001F06CF82A46334601F0B6FAD4E9002305
:102C1000BDE8F04101F062B8012202F004B9000001
:102C2000024A0020110702F0FEB8000001FDFFFF7C
:102C300030380A2801D20120704700207047014631
:102C400000BF70472DE9F84F04460D4621F00040C3
:102C500000917349814211DC7249884201DC06D13E
:102C60002CB120462946BDE8F84FFFF7D5BF6E4886
:102C7000002DCCBF6D496E49BDE8F88F6D4981428A
:102C800011DD6D498142D8BF4FF0FF366DDD204622
:102C90002946FFF758FF042808BFFFF7C1FF204669
:102CA0002946BDE8F88F6549654F25F0004581420A
:102CB00033DD6449814219DD002632464FF08043FE
:102CC0002046294601F00AF880468A46012220461D
:102CD000294602F0A8F800223B4601F03DFC42469E
:102CE000534601F0ABF804460D463EE001260022B3
:102CF000BA463B462046294600F0F0FF80460F4684
:102D0000002253462046294601F026FC42463B4617
:102D100001F094F804460D4627E04B4981421BDD43
:102D2000DFF828A10226002253462046294601F05A
:102D300023FA00223B4600F0D1FF80460F460022D6
:102D400053462046294601F007FC42463B4601F027
:102D500075F804460D4608E0032622462B4600205F
:102D60003B4901F06BF804460D4622462B461046BF
:102D7000194601F001FA8B46824602460B4601F0E5
:102D8000FBF907460246334888460B46062178443D
:102D9000FFF7EDFE52465B4601F0EEF982462E4803
:102DA0008B463A46434605217844FFF7E0FE3A4613
:102DB000434601F0E1F902460B46002E50465946C3
:102DC0000CDA00F08BFF22462B4601F0D5F901B05A
:102DD00022462B46BDE8F04F01F0CCBA00F07EFF52
:102DE00022462B4601F0C8F91C4A7A4402EBC6037E
:102DF000D3E9002301F0B0FB22462B4601F0ACFBE7
:102E0000174A7A4402EBC603D3E9002301F0B2FA71
:102E1000009A002AB8BF81F00041BDE8F88F000099
:102E2000000010440000F07F182D4454FB21F93FAE
:102E3000FB21F9BF0000DC3F0000203E0000F33F13
:102E40000000F03F0000E63F008003400000F83F34
:102E50000000F0BFB6210000742100001221000024
:102E6000DA2000000A2000BF011EA0F1010290B28A
:102E7000FAD1704710B56FF00400FEF771FB0A48F5
:102E800000680A49B0FBF1F009490870084600786B
:102E900000EB4001C1EBC0104FF6FF7101EAC0002A
:102EA0000449088010BD00000000002000127A00D4
:102EB00014000020160000200146114A12884A43DF
:102EC0004FF0E0235A6100229A611A46126942F0DB
:102ED00001021A6100BF4FF0E022106900F0010208
:102EE0001AB100F48032002AF5D04FF0E0221269C6
:102EF00022F001024FF0E0231A6100229A6170472C
:102F00001600002000BF054A128802F04002002A85
:102F1000F9D0C2B2014B1B1D1A8070470038014026
:102F20002DE9FF47814600260027B0460025B9F16C
:102F3000010F7CD1CFE0D0A0FDF772F900F026FEA2
:102F40000028F7D000F028FE0446412CF2D1CCA096
:102F5000FDF766F900F020FE0446432C03D1012062
:102F600004B0BDE8F087422CE4D10020C7490870C6
:102F70000DE000F011FE3038C1B2C4480078801C6A
:102F80000DF80010C1480078401CC0490870BF48C7
:102F900000780C28EDDBBEA0FDF742F99DF8020099
:102FA000642148439DF8031001EB810100EB4100CF
:102FB0009DF80410084406B29DF8050064214843BA
:102FC0009DF8061001EB810100EB41009DF8071010
:102FD00047189DF80800642148439DF8091001EB4B
:102FE000810100EB41009DF80A1008440FFA80F8B7
:102FF0009DF80B00642148439DF80C1001EB810102
:1030000000EB41009DF80D10084405B2A7F596703D
:1030100007B2B42000F079FB4FF47A70FFF74CFF51
:10302000B4239E48B0F900203946304600E053E012
:1030300000F0F6FCB42342463946304600F0F0FC7E
:10304000284600F035F92B469448B0F900200021BD
:10305000AA2000F0E5FC2B46C8220021AA2000F09F
:10306000DFFC4FF47A70FFF727FF502D1AD12B4663
:103070008A4800881E3002B28948B0F90010894899
:10308000B0F9000000F0CCFC2B468448B0F90020D9
:10309000A521012000F0C4FC2B46C822A521012057
:1030A00000F0BEFC822D0DD12B467C48B0F90020EB
:1030B000A521142000F0B4FC2B46AA22A52114203F
:1030C00000F0AEFC4FF47A70FFF7F6FEB42000F08B
:1030D000EFF8022044E72EE7CDE000F057FD00288E
:1030E0007ED000F059FD044621466FA0FDF798F808
:1030F000412C75D100F050FD0446432C01D1012034
:103100002EE7422CF5D10020604908700DE000F058
:1031100043FD3038C1B25D480078801C0DF80010C6
:103120005A480078401C59490870584800780C28C3
:10313000EDDB57A0FDF774F89DF8020064214843C9
:103140009DF8031001EB810100EB41009DF8041094
:10315000084406B29DF80500642148439DF8061016
:1031600001EB810100EB41009DF8071047189DF825
:103170000800642148439DF8091001EB810100EB30
:1031800041009DF80A1008440FFA80F89DF80B00E2
:10319000642148439DF80C1001EB810100EB4100D4
:1031A0009DF80D10084405B2A7F5967007B2B4203B
:1031B00000F0ABFA4FF47A70FFF77EFEB423374885
:1031C000B0F900203946304600F02AFCB4234246CC
:1031D0003946304600F024FC284600F069F800E04B
:1031E00047E02B462D48B0F900200021AA2000F02E
:1031F00017FC2B46C8220021AA2000F011FC4FF436
:103200007A70FFF759FE502D1AD12B4623480088BB
:103210001E3002B22248B0F900102248B0F9000076
:1032200000F0FEFB2B461D48B0F90020A52101202F
:1032300000F0F6FB2B46C822A521012000F0F0FB90
:10324000822D0DD12B461548B0F90020A521142060
:1032500000F0E6FB2B46AA22A521142000F0E0FB9B
:103260004FF47A70FFF728FEB42000F021F8022016
:1032700076E6002074E630E7656E7465720D0A002C
:10328000656E74657220410D0A000000AE000020DA
:103290006772617370696E67200D0A00AC000020D0
:1032A000AA000020A800002025780D0A00000000D8
:1032B00010B5044604F12D0081B20248FFF759F918
:1032C00010BD0000000400402DE9FF4FB3B0002105
:1032D000309131910026FE4F8846DFF8F893FE4882
:1032E000CDE92E10FD48CDE92C10FD48CDE92A107E
:1032F00028912991339901FB01F2349901FB0120B6
:1033000000F023FFCDE9100100F064FBCDE91201CC
:10331000DDE9302301F020F9CDE91401DDE92E23A8
:1033200001F01AF904460D46359800F00EFFCDE97C
:103330001001DDE92C2301F00FF9CDE91201DDE9DF
:103340002A2300F0CBFCCDE91401DDE9282300F0AD
:10335000C5FC82468B4622462B4600204FF080411A
:1033600000F00AFF32463B46CDE9140100F004FFAD
:10337000CDE9260152465B4600204FF0804100F027
:10338000FBFE32463B46CDE9140100F0F5FECDE9E7
:10339000240122462B4600204FF0804100F0ECFE35
:1033A00042464B46CDE9140100F0E6FECDE922018C
:1033B00052465B4600204FF0804100F0DDFE424661
:1033C0004B46CDE9140100F0D7FECDE9200142467D
:1033D0004B464046494600F0CFFE32463B46CDE9DB
:1033E00014013046394600F0C7FE52465B46CDE92F
:1033F00010015046594600F0BFFECDE90C0185F0A2
:10340000004022462B46CDE908402046099900F0AD
:10341000B3FECDE90A01DDE90C2301F09DF8CDE909
:103420000E01DDE9102301F097F8CDE91201DDE985
:10343000142300F053FCCDE91E0142464B464046A2
:10344000494600F099FE32463B46CDE9140130462C
:10345000394600F091FE52465B46CDE910015046D8
:10346000594600F089FECDE90C0185F00040224666
:103470002B46CDE908402046099900F07DFECDE9B4
:103480000A01DDE90C2301F067F8CDE90E01DDE961
:10349000102300F023FCCDE91201DDE9142301F033
:1034A0005BF8CDE91C01339800F04FFE0022134673
:1034B000CDE90E0100F012FCCDE91201349800F0C4
:1034C00044FE00221346CDE90E0100F007FCCDE9D1
:1034D0001001DDE9122300F0B1FCCDE91401FFF782
:1034E000B1FBCDE91A01DDE91E23DDE9260101F07A
:1034F00033F8CDE91001DDE91E231046194600F02E
:103500003BFECDE90801DDE924231046194600F011
:1035100033FECDE90401DDE926231046194600F00B
:103520002BFECDE90201DDE9042300F0D7FBCDE954
:103530000601DDE9082301F00FF8CDE90A0100F0EA
:1035400049FACDE90C01DDE9242300F0C7FBCDE900
:103550000E01DDE9102300F071FCCDE91201FFF747
:1035600071FB00224FF08043CDE9140100F004FE0E
:10357000CDE91801DDE91C23DDE9220100F0ECFFB3
:10358000CDE90E01DDE91C231046194600F0F4FDDB
:10359000CDE90601DDE922231046194600F0ECFDD5
:1035A000CDE90201DDE920231046194600F0E4FDD3
:1035B000CDE90001DDE9022300F090FBCDE9040133
:1035C000DDE9062300F0C8FFCDE9080100F002FAAA
:1035D000CDE90A01DDE9202300F0CCFECDE90C01A4
:1035E000DDE90E2300F02AFCCDE91001FFF72AFBEC
:1035F00000224FF08043CDE9120100F0BDFDCDE97E
:103600001401DDE9182300F0A7FFCDE9160100221F
:10361000344BDDE91A0100F0AFFD334A334BCDE9FD
:10362000100100F00BFCCDE9120100F05FFD8730C6
:1036300080B2014615902E48FEF795FF0022294BD7
:10364000DDE9180100F098FD274A284BCDE90E016D
:1036500000F0F4FB0022274BCDE9100100F07CFFC5
:10366000CDE9120100F042FD00B2C0F1E10080B2EC
:10367000014615901E48FEF778FF16A80FC800F007
:103680002DFB0022174BCDE90E0100F075FD164A07
:10369000164BCDE9100100F0D1FBCDE9120100F08D
:1036A00025FD873080B2014615901148FEF75FFF77
:1036B00036982D3081B20E48FEF75BFF0E493398E5
:1036C00008800E49349808800D493598088019E023
:1036D00000E06040006062400000564000C068406A
:1036E0000000594000806640EA2E4454FB21094006
:1036F0000004004000002840A8000020AA0000208C
:10370000AC00002037B0BDE8F08F10B5044623466A
:10371000C8220021AA20FFF7D7FD10BD00BF00245A
:10372000FFF7A8FB4FF4E13000F056FA4FF4A06029
:10373000FDF71AFDFDF720FAFCF73AFF2FA0FCF782
:103740006FFDFDF7ABFB40F21F3140F2C110FEF7F9
:10375000A3F92BA0FCF764FD4FF47A30FFF7CAF809
:103760004FF47A30FFF746F826A0FCF759FDB42055
:10377000FFF7CBFF47214FF6FF70FEF7B5FA472161
:103780004FF6FF70FEF7F6F9FDF742F9FDF744FB3F
:103790001DA0FCF745FD4FF49670FFF78DFB2CE064
:1037A000022C0ED1FEF768FF19A0FCF739FD254861
:1037B00001682548006800F08DF81420FFF77CFBB5
:1037C00017E0012C0DD121A0FCF72AFDFCF7A2FF88
:1037D0002046FFF7A5FB04464FF47A70FFF76CFB19
:1037E00007E0FEF749FF174801681748006800F036
:1037F00071F82046FFF794FB0446D1E7310D0A002B
:10380000320D0A00330D0A0053544152540D0A0080
:1038100066696E697368656466696E697368656414
:1038200066696E697368656466696E697368656404
:1038300066696E697368656466696E6973686564F4
:103840000D0A0000840000208000002073746F7057
:1038500073746F7073746F7073746F7073746F7050
:1038600073746F7073746F700D0A00002DE9F04768
:1038700006460C4600250027304601F0CFF880466A
:10388000E16801F029FA05462846216801F024FA8A
:103890008246A16801F022F980462946606801F05D
:1038A0001DF98146414600F06DFF07462560384608
:1038B000BDE8F08705494160054981600021C1608C
:1038C000016040F2BB210161704700009A99193EE6
:1038D000CDCC4C3E2DE9F04104460D46601B00283E
:1038E00001DB024600E04242114602EBD172571062
:1038F0004FF00E080026322C08D1322D06D1FCF7ED
:1039000009FF6421084600F04FF84AE0B4F57A7FD9
:1039100002DAB5F57A7F1EDBFCF7FCFE294620466D
:1039200000F042F800260DE04FF4C870054604464A
:10393000FCF730FF2946204600F036F81E20FFF73E
:10394000BBFA761C0A2EEFDBFCF7E4FE2946204684
:1039500000F02AF825E047450CDCFCF7C7FE6019AB
:1039600000EBD07149100D460C462946204600F068
:103970001BF816E0AC4208DDFCF70CFF601900EB09
:10398000D07149100D460C4607E0FCF7EDFE6019BA
:1039900000EBD07149100D460C462946204600F038
:1039A00003F8BDE8F081000070B504460D46A1B2F1
:1039B0000748FEF7DCFDA9B20548FEF7DAFDA1B223
:1039C0000348FEF7D0FDA9B20148FEF7CEFD70BD59
:1039D000003401402DE9F04106460F4600F0D6FCC8
:1039E000041E0D4618BF0120284320F00040C0F1FE
:1039F0007F6000F1E040C00F0ED0301C18BF0120E6
:103A0000384320F00040C0F17F6000F1E040C00F7B
:103A100004BF0120FCF708FD20462946BDE8F081DF
:103A20002DE9FF4F97B006460F46904614244148B3
:103A3000B0F900904048B0F900A04048B0F900B09B
:103A4000A6EB090090FBF4F0099000F07EFBCDE9B5
:103A50001401A7EB0A0090FBF4F0099000F075FB4D
:103A6000CDE91201A8EB0B0090FBF4F0099000F0F7
:103A70006CFBCDE91001484600F067FBCDE90E0173
:103A8000504600F062FBCDE90C01584600F05DFBAA
:103A9000CDE90A01012548E0284600F056FBCDE9B2
:103AA0000001DDE9102300F067FBCDE90201DDE94B
:103AB0000A2300F013F9CDE9040100F017FB00B26E
:103AC0000990284600F041FBCDE90001DDE9122311
:103AD00000F052FBCDE90201DDE90C2300F0FEF815
:103AE000CDE9040100F002FB00B20890284600F086
:103AF0002CFBCDE90001DDE9142300F03DFBCDE90D
:103B00000201DDE90E2300F0E9F8CDE9040100F03F
:103B1000EDFA00B207901A9BDDE90812FFF7D4FB1B
:103B20003220FFF7C9F9681C05B2A542B4DD1BB00D
:103B3000BDE8F08FA8000020AA000020AC00002003
:103B400001480078704700007500002000BF0C4954
:103B500009780029FBD00B490B4A1278885C0A4986
:103B60000978491C084A117011460978FF2901DDBE
:103B70000021117002490978491E014A11707047ED
:103B800075000020D4010020760000200148007854
:103B9000704700009500002000BF0C4909780029FB
:103BA000FBD00B490B4A1278885C0A490978491CFA
:103BB000084A117011460978FF2901DD00211170B2
:103BC00002490978491E014A11707047950000208A
:103BD000D40200209600002010B586B004460121D2
:103BE00044F20400FDF702FB4FF40070ADF814003E
:103BF00003208DF8160018208DF8170005A91C4821
:103C0000FDF772F84FF48060ADF8140004208DF8D1
:103C1000170005A91648FDF767F825208DF8000064
:103C200003208DF801008DF8020001208DF80300BB
:103C30006846FDF761FA01940020ADF80800ADF880
:103C40000A00ADF80C00ADF810000C20ADF80E0025
:103C500001A90848FEF704FF012240F2255105485A
:103C6000FEF7D8FE01210348FEF79EFE06B010BD08
:103C7000000801400038014021F00042A2F16052EA
:103C8000B2F5801F01F0004328BFD2F17F6C0BD941
:103C90005FEA001C43EAC20242EB507018BF704753
:103CA00028BF20F001007047B2F5801FBCBF184646
:103CB00070474FEA410C1CF5001F02D2084600F085
:103CC000D4BF70B500F002FB00000089FFF7F6BF1B
:103CD0004FF00040A0F580007047000010B591EA59
:103CE000030F48BF83F0004300F13E84841A71EB58
:103CF000030C05D2121943EB0C03001B61EB0C0102
:103D0000DFF824E14FEA1154A4EB135C1EEA430FE1
:103D100018BF9EEA445F73D023EA0E03DCF1200E45
:103D200021EA045143F4801332D322FA0CFE10EB43
:103D30000E0023FA0CFE41EB0E01CCF1200E03FA2B
:103D40000EFE10EB0E0051F10001B1F5801FCCF119
:103D5000200E32D201EB045112FA0EF2BDE81040EF
:103D600058BF7047401C38BF5FEA420218BF704717
:103D7000002814BF20F0010041F100014FEA410387
:103D800013F5001F38BF7047A1F1C04100F0ECBA35
:103D9000012A43EB0302ACF1200CDCF11F0E32BF11
:103DA0004FF0000E23FA0CF310EB030041EB04512B
:103DB000B4EB115FD0D0A1EB045101F5801149089B
:103DC0005FEA300001EB04510ED350F1000038BF20
:103DD00012FA0EFE08D1BDE81040C9E7401C38BFFA
:103DE0005FEA4202CAD1C3E7BDE810404FEA41038F
:103DF00013F5001F38BF7047A1F1C04100F0B4BAFD
:103E00009EEA445F08D011EA5E0FBDE8104004BF8F
:103E100001F0004100207047BDE8104070B500F08F
:103E200055FA00BF64FBBE3E0000E0FF02494FF0C0
:103E3000000000F0C6BF00BF0000F87F2DE9C041C0
:103E400030B4DFF8A0C23CEA111418BF3CEA1314E6
:103E500000F0EC8081EA03051CEA111444EAD574F1
:103E600018BF1CEA131500F0C780A4EB05044FF03F
:103E7000004545EAC12145EAC32341EA505143EADE
:103E8000525304F17F74994204F500344FEAC02084
:103E90004FEAC22208BF904200F09C804FEA1365AF
:103EA0000FF24016765D4FEA134506FB05F7C7F1A2
:103EB000807706FB07F74FEAD737A7FB0368764200
:103EC000C8F58038A7FB06CE38BFA8F1010807FB6C
:103ED00008E64FF0000EA6FB028CE6FB03CEDCF1F9
:103EE000000CCEF1004E38BFAEF1010EA6FB0C580F
:103EF0004FF000074FF00005E6FB0E87A1FB08C658
:103F0000A0FB07CE16EB0E0645F10005E1FB0765A9
:103F100015F1E04E7EBFA4F580345FEA46066D41A0
:103F200016F1800745F100054FEA17274FEA0666AC
:103F300047EA0567A6F1DE46B6F1805F4FEA152530
:103F40001FD9384624F0010C05EBC471BCF1FE6F9B
:103F500001EB0C1102D8F0BCBDE8008124425CBF2B
:103F600001F5801E9EEAC47F02D4F0BCBDE800814A
:103F7000244238D4F0BCA1F1C041BDE8004100F0BA
:103F8000F3B94FEAD22242EA43524FEAD323A7FBC6
:103F900002864FEAD02040EA415007FB03661EEA42
:103FA0000E0F4FEAD12105FB026658BFA6EB005663
:103FB000B6EB00564FEA520E4EEAC37E18EB0E0ED9
:103FC00056EB530EBDD518EB02085E417F1C55F130
:103FD0000005B6E74FF480154FF000074FF00006DC
:103FE0004FF00008ADE7F0BC4FF0000001F1C04118
:103FF00001F00041BDE8008111EA0C1F0CEA131525
:1040000000D00CE013EA0C1F00F025804FF00000F8
:10401000F0BC81EA030101F00041BDE80081F0BC81
:10402000BDE8004181EA030100F09EB9F0BCBDE8A3
:10403000004170B500F04AF9097EFC3E00F007B877
:1040400081EA03014FF0000001F00041704781EA6E
:10405000030100F089B9F0BCBDE800414FF0000059
:1040600021497047FFFDFBF9F7F5F4F2F0EEEDEBB7
:10407000E9E8E6E4E3E1E0DEDDDBDAD8D7D5D4D366
:10408000D1D0CFCDCCCBCAC8C7C6C5C4C2C1C0BFB2
:10409000BEBDBCBBBAB9B8B7B6B5B4B3B2B1B0AFB8
:1040A000AEADACABAAA9A8A8A7A6A5A4A3A3A2A19C
:1040B000A09F9F9E9D9C9C9B9A9999989797969557
:1040C00095949393929191908F8F8E8E8D8C8C8BF3
:1040D0008B8A89898888878786858584848383827B
:1040E000828181800000FF070000F87F4FEA4103D2
:1040F0004FEA5353A3F58063D3F11E03C8BFD3F136
:10410000210C0CDD4FF0004242EAC12242EA50523B
:1041100032FA03FC8CEAE17CACEBE1707047102BC7
:10412000C4BF0020704703F5787CBCF1FF3F04D08A
:104130006FF0004282EA2100704770B500F0C6F8C7
:104140004992248000207047F2E710F0004248BFF7
:104150004042B0FA80F310FA03F10AD0C3F11D0314
:1041600003F580634FEA415002EB035202EBD12189
:1041700070474FF000007047DFF848C170B51CEA87
:10418000111E1EBF1CEA13159EEA0C0F95EA0C0FB8
:1041900000F06F8081EA030423EA4C134EEAD47ED8
:1041A00021EA4C1141F4801143F48013AE44A1FB89
:1041B000024CA0FB0365AEF17F7E361955EB0C0572
:1041C000A1FB034C4CF10003A0FB021C16EB0C06F8
:1041D000654153F10003094218BF46F0010613F48C
:1041E000007F0BD14FEA03314FEA0530340341EA37
:1041F000155140EA16506FF003020AE04FEAC3215E
:104200004FEAC520F40241EA555140EA56506FF09A
:10421000020202EB2E4201EB025585EACE710AD072
:104220005FEA440C18BF24F0004450F1000041F153
:10423000000120EAD47040F2FE7C624500D270BDDD
:10424000A84214BF4FF080444FF04044002E08BFF6
:104250000024BEF1806FA8BFA1F1C041BDE870404D
:1042600080F282804FF0000001F1C04101F0004176
:1042700070479EEA0C0F0CEA131518BF95EA0C0F55
:1042800006D04FF0000081EA030E0EF0004170BD31
:1042900000F01CF88900013E00F007B800F009B8F2
:1042A0004FEA430C5FEA5C5C08D081EA030100F04E
:1042B0005BB84FEA410C5FEA5C5CF6D14FF000005E
:1042C000014970470000FF070000F87F0EF1020E61
:1042D0002EF0030E5EF8046B364205D4012A43EB40
:1042E000030515F5001F12D8012841EB010C1CF540
:1042F000001F0CD80ED14FEAD17C15F5001F0CEB36
:104300004C0C0CF1020C08BF4CEBD37C04E04FF0DA
:10431000080C01E04FEAD37C0CEB4C0526FA05F6BD
:1043200006F00706B6F1040C06D20EEB860CBDE8CB
:1043300070404CF0010C6047DFE80CF0090B020202
:104340004FF000414FF00000A1F5002170BD19466B
:104350001046012851EB010418BFD4F5001484BFA6
:10436000002001F0004170BD0808A0F500114FEADF
:104370003101704791EA030F10B581F000413FF51C
:10438000B5AC83F0004300F0EFB800002DE9F04138
:1043900001F5801CBCF5001FC0F2C3804FEA115C20
:1043A00021EA0C510CF1FD0C41F480115FEA5C0C28
:1043B0000CF5C07C01D3400049413DA4890241EA8B
:1043C000905187028E0E0A0CA45D04FB04F602FBDA
:1043D00006F6C6F14046A4FB0662F60D46EA422602
:1043E00006FB06F4A4FB01235242C3F1404338BF4D
:1043F0005B1EA6FB02420024E6FB0324D20B42EA2A
:104400004446A6FB0623A1FB02E2A3FB07E4A41893
:104410004FF0000252F10002E3FB01426442C2F19C
:10442000404E38BFAEF1010EA6FB04234FF0000250
:10443000E6FB0E32A2FB03464FF00004B61954F11E
:104440000004E2FB0264A1FB06E6A4FB07E816EB0E
:1044500008064FF0000858F10008E4FB01687642B6
:10446000C8F1405838BFA8F10108A2FB06E4A3FB3D
:1044700008E52D194FF0000454F10004E2FB085444
:10448000A1FB05E6A7FB04E818EB06084FF00006C1
:1044900056F10006E1FB048618F1200556F10006EE
:1044A000A809A8F11B08B10908F03F08B8F10A0FE4
:1044B00040EA86601CD901EB0C51BDE8F08100BFD9
:1044C000FCF5EEE8E2DDD8D3CFCBC7C3C0BDB9B6AB
:1044D000B4B1AEACA9A7A5A3A19F9D9B9A989695B0
:1044E0009392908F8D8C8B89888786858483828137
:1044F000A0FB006800FB01F208EB4208B8EB87283C
:1045000007D5341858EB0104D5D5401C51F10001F2
:10451000D1E7341A78EB0104CDD4401E71F10001CB
:10452000C9E75FEA4C0C5FEA9C5C0DD105D34FF004
:10453000000001F00041BDE8F081BDE8F04170B538
:10454000FFF7C4FE6DDBFFBEBDE8F0414FF0000099
:10455000004970470000F87F10B591EA030F48BF8B
:1045600083F000433FF5C2AB841A71EB030C07D212
:1045700012198CF0004C43EB0C03001B61EB0C0197
:10458000DFF8A4E14FEA1154A4EB135C1EEA430FD9
:1045900018BF9EEA445F00F0B08023EA6E035242E7
:1045A00021EA0451C3EB6E0338BF5B1EDCF1200E21
:1045B00025D322FA0CFE10EB0E0043FA0CFE41EB61
:1045C0000E01CCF1200E03FA0EFE10EB0E0051F19D
:1045D0000001CCF1200E29D412FA0EF201EB0451A5
:1045E000BDE8104058BF7047401C1CBFB2F1004FDF
:1045F000704700280CBF491C20F00100704712EBE7
:10460000020E43EB030218BF4FF0010E4EEA4202C6
:10461000ACF1200CDCF11E0E54D943FA0CFE10EB69
:104620000E0051F1FF31CCF11E0ED5D50EF1010E69
:1046300012FA0EFE404141EB010101EB445C5FEADE
:104640005C5C10D910EBDE7001EB045138BFBEF199
:10465000004FBDE8104018BF704700280CBF491C30
:1046600020F00100704730D24FEAD42C11F5001130
:1046700024F400641BD0B1FA81F20B3AA41AA41EF0
:10468000D2F12003914030FA03F31943904001EB3B
:10469000CC71002C01EB0451BDE81040A8BF70475D
:1046A00001F1C0414FF0000001F000417047B0FA45
:1046B00080F310FA03F100D110BDE41A173C48054D
:1046C000C90AE4E701EB045110BD491001EB0451A4
:1046D000BDE810404FEA300002E04FF000017047A3
:1046E0004A0008BF0042F8D0B2F5001F28BF70474B
:1046F00001F000414FF0000070479EEA445F07D090
:1047000011EA5E0FBDE8104004BF00210020704791
:10471000BDE8104070B5FFF7D9FD00BF40DFF63EA1
:1047200083F00041104670470000E0FF43004FEA6D
:10473000D30C4FEA3C0C43401FBF40070CF16051C3
:1047400013F0FE4F70471CF0006F03D100200CF0F7
:10475000004170470CF0004343EA507010B540EA46
:10476000CC0000F03CFA00BF000000924FEA0001CC
:10477000FFF7FABD4FF000414FF00000A1F5002116
:104780007047000090EA010F48BF81F0004100F13E
:10479000AA82421A3CBF801A89184FEAD0524FF0C1
:1047A0007F4C1CEA410FA2EBD15318BF9CEA026F69
:1047B00000F03B804FF0004C4CEA00204CEA012115
:1047C00021FA03FC10EB0C0C1ED202F1FF325FEA5F
:1047D0001C2040EBC25038BF70471CF07F0F4FEADF
:1047E000400C18BFBCF17F4F38BF7047C3F12003A6
:1047F000994008BF20F00100BCF17F4F38BF7047DF
:10480000A0F1C04000F031BA4FEA3C00000A40EB92
:10481000C25028BF1CF0FF0F4FEA400CE6D018BF73
:10482000BCF17F4F38BF7047EAE79CEA026F05D0C2
:1048300010EA5C0F08BF00F00040704710B500F0B0
:10484000CEF900BF64FBBE3E401058BFC0F14040EF
:10485000491058BFC1F140418142EFF300807047D9
:104860004FF47F0C1CEAD0121EBF1CEAD11392EA4F
:104870000C0F93EA0C0F00F0858090EA010F48BFFF
:1048800042F4807240F4000C41F400002CF07F41AF
:1048900020F07F4000B58142A2EB03020FF2081C1A
:1048A000ACEB504EC0F100009EF800E04FEA4E0E17
:1048B00000FB0EFC38BF49004FEA2C1C02F5FA023F
:1048C0000CFB0EF34FEACE1E4FEA112C4FEAC1212A
:1048D0000EEB635E42EB22420EFB0CFC4FEA1C53D4
:1048E00000FB03114FEA112C4FEA01310EFB0CFCC7
:1048F0004FEADC4C00FB0C11C14228BF09184CEBFD
:1049000003335DF804EB10EB410143EBC250B2F509
:104910007C0F38BF704729D512F0F00F1CBF00F193
:10492000C04000F000407047008182838485868704
:1049300088898B8C8D8E8F919293959697999A9C5E
:104940009D9FA0A2A3A5A7A8AAACAEB0B2B3B5B7CD
:10495000B9BCBEC0C2C5C7C9CCCED1D4D7D9DCDFA3
:10496000E2E6E9ECF0F3F7FAFE0000004FEA400C53
:104970000CF1807CBCF17E4F28BF7047B0F1C04085
:1049800000F073B990EA010F0CEAD11348BF42F46A
:104990008072624538BF634507D213F47F0F16D08B
:1049A00080EA010000F00040704710B500F017F9F0
:1049B000097EFC3E00F005B880EA010000F00040EE
:1049C000704780EA010000F0004000F04EB912F498
:1049D0007F0F04BF0248704780EA010000F045B92C
:1049E0000000C07F41000B0ED3F19E0208D950F4A5
:1049F00000034FEA032323FA02F048BF4042704706
:104A000010B500F0ECF800BF4992248000207047F8
:104A10006FF0004282EA20007047000010F0004171
:104A200048BF4042B0FA80F310FA03F2C3F19D038D
:104A30000BD051EAC35101EB1220530638BF704727
:104A400000F1010008BF20F001007047B0FA80F3C8
:104A500010FA03F2C3F19D030AD0D90501EB12202D
:104A6000530638BF704700F1010008BF20F0010075
:104A70007047000050EA010C00F113801CF5000F94
:104A800058BFBCF5000F01D48842704707D710F516
:104A9000000F58BF11F5000F15D4884270478942A6
:104AA00070471CF5000F04D5BCF5000FF7D5814207
:104AB00070474FF0807C1CEB400F38BF1CEB410F60
:104AC00001D28142704710B500F089F89224490064
:104AD0004FF000504FF08051FFF7B6BE4FF47F0CFF
:104AE0001CEAD0121EBF1CEAD11392EA0C0F93EA03
:104AF0000C0F00F0478090EA010F48BF42F480722B
:104B00004FF0004C4CEA00204CEA012102EB03027A
:104B1000A0FB0113A2F50002002918BF43F0010316
:104B20005B0028BF4FEA330342EB22425FEA132CBB
:104B30004CEBC2502EBFBCEB436FB2F57C0F7047FD
:104B40004FEA036CBCF1004F08BF20F00100B2F542
:104B50007C0F38BF70470BD582F0FF0212F5803F03
:104B6000C8BF704700F1C040D8BF00F00040704798
:104B700000F5000C5FEA4C0C48BF7047B0F1C04034
:104B800000F073B890EA010F0CEAD11348BF42F469
:104B90008072624538BF634504D280EA010000F0AC
:104BA0000040704710B500F01AF800BF8900013EC0
:104BB00000F007B800F009B85FEA410C5FEA1C6C2E
:104BC00008D080EA010000F050B85FEA400C5FEACC
:104BD0001C6CF6D14FF00040A0F5800070470EF13C
:104BE000020E2EF0030E5EF8044B244204D44FEA6A
:104BF0004102B2F17F4F11D84FEA4003B3F17F4F2A
:104C00000CD80ED14FEAD07CB2F17F4F0CEB4C0C9C
:104C10000CF1020C08BF4CEBD17C04E04FF0080C07
:104C200001E04FEAD17C0CEB4C0324FA03F404F0CE
:104C30000704B4F1040C06D20EEB840CBDE810405E
:104C40004CF0010C6047DFE80CF0070802024FF05F
:104C50000040A0F5800010BD0846420018BFD2F108
:104C6000807288BF00F0004010BDFF2141EAD050A3
:104C7000C005704751EA000C00F113801CF5000FCD
:104C800058BFBCF5000F01D48142704707D711F51A
:104C9000000F58BF10F5000F15D4814270478942AC
:104CA00070471CF5000F04D5BCF5000FF7D58842FE
:104CB00070474FF0807C1CEB410F38BF1CEB400F5E
:104CC00001D28842704780EA010081EA000180EA4F
:104CD0000100FFF7F8BE000090EA010F48BF81F025
:104CE00000413FF556AD421A04D882F00042A0EBD5
:104CF000020011444FEAD0524FF07F4C1CEA410FA2
:104D0000A2EBD15318BF9CEA026F4AD04FF0004C7F
:104D10004CEA00204CEA012121FA03FCB0EB0C0C18
:104D20000FD412F0FE0F36D05FEA4C001DD50012F2
:104D300040EBC25038BF70471CF03F0F18BF7047A0
:104D40000BE0A2F101025FEA1C2040EBC25038BF29
:104D500070471CF07F0F18BF7047C3F120039940C4
:104D600014BF401E20F00100704780084FEA122354
:104D700008BF7047B0FA80FCA2EB0C02CCF1280C03
:104D800060FA0CF093EA122F04BF00EBC250704798
:104D90004FEAC3707047130A5FEADC1008BF704720
:104DA000F6E79CEA026F04D010EA5C0F08BF00200F
:104DB000704710B5FFF713FF40DFF63E81F000406B
:104DC00070470CF00F03092B08BF082000F0598032
:104DD0000A2B0BD0082B18BF704708BF1CF0400FE0
:104DE0000AD04FF000004FF0000170471CF0400F58
:104DF00018BF4FF0004070471CF0100F08D020F093
:104E0000704300F07F4242EAD3014FEA437070479B
:104E100000F0604021F07F4242EA000201F07F4052
:104E200040EA727070474FF0FF0C4CF4E06C1CEAE3
:104E300011531CBF9CEA030C9445C2BFDA4201EB3C
:104E400002517047002B0DD0BCF1000F0FD0002A8B
:104E500001F00041A4BF41F0E04141F07F614FF01B
:104E60000000704701F000414FF00000704750EA29
:104E700001334FF09B0C18BF4CF0806C7EF4D6AF22
:104E800070471CF4801F11D01CF4E02F03D06FEA90
:104E9000CC31490070474FF04050EFF3008222F0D0
:104EA000704242EA000282F3008870474FF000002F
:104EB0007047303132333435363738394142434424
:104EC0004546403058003031323334353637383982
:104ED0006162636465664030780000000000000095
:104EE0004FBB610567ACDD3F182D4454FB21E93F02
:104EF0009BF681D20B73EF3F182D4454FB21F93FF1
:104F0000E2652F227F2B7A3C075C143326A6813C76
:104F1000BDCBF07A8807703C075C143326A6913C21
:104F2000C4EB98999999C9BF711623FEC671BCBF8D
:104F30006D9A74AFF2B0B3BF9AFDDE522DDEADBFF5
:104F40002F6C6A2C44B4A2BF0D5555555555D53F0D
:104F5000FF8300922449C23F6E204CC5CD45B73F28
:104F6000513DD0A0660DB13FEB0D76244B7BA93FA0
:104F700011DA22E33AAD903F984F0008000000207C
:104F8000BC0000006C01000854500008BC00002068
:104F90007C0900008801000800A24A04000000000B
:104FA00000000000010203040607080900000000D9
:104FB00000000000000000000000010203040102E4
:104FC00003040607080902040608000000000000A8
:104FD00000000000000000000000000000000000D1
:104FE00000000000000000000000000000000000C1
:104FF00000000000000000000000000000000000B1
:10500000020000000100000000000000000000009D
:1050100000000000000000009A0100009A0100005A
:105020000000000000000000000000000000000080
:105030000000000000000000000000000000000070
:105040000000000000000000000000000000000060
:04505000000000005C
:04000005080001DD11
:00000001FF
